:0400000080313228F1
:100008007E14803120007F08F1000B1D2D2801305F
:10001800E8070030E93D6908803AF0008030700256
:10002800031D18287F306802031C2C2803102200A7
:100038008D1F0314031C232822008D172528220056
:100048008D132000E801E9010130F0007008EA0092
:100058000B1171082000FF007E1009008031342840
:100068005C308400003085000F3086317F26803177
:10007800A030840000308500173086317F2680311B
:10008800873105278031FA0087310627FB007E106B
:10009800200080314F2821001908FC3902389900C6
:1000A80078309904FF308C0023008D0121008D13D6
:1000B80022008D17210095110730950495128B1693
:1000C8000B11200095012A009517043023008C009D
:1000D800043021008C009E171D08833908389D00C4
:1000E800FC309E051E088F3960389E001D14BB0128
:1000F800BC013C08803A2000D40080305402031D23
:100108008828053021003B020318C028403086317A
:100118006C26803107302000D6001730D5006F30AC
:10012800D400D40B9528D50B9528D60B952800001C
:10013800003086316C26803107302000D600173019
:10014800D5006F30D400D40BA728D50BA728D60B21
:10015800A728000001302100BB070030BC3D3C0847
:10016800803A2000D40080305402031DBE28053098
:1001780021003B02031C8A28033086316C2680311B
:1001880000302000A0008730A10085314E25803145
:100198000B178B170B302000D6002630D5006630A1
:1001A800D400D40BD528D50BD528D60BD5280032AA
:1001B80020006A08013A031DDC280030DF00003007
:1001C800DE000030DD000030DC002100BB01BC0196
:1001D8003C08803A2000D40080305402031DF728E0
:1001E800203021003B020318352921009D149D1859
:1001F800FB2820005C08D4005D08D5005E08D60006
:100208005F08D70021001B082000D80021001C0827
:100218002000D9000030D91BFF30DA00DB00580875
:10022800D4075908D53D5A08D63D5B08D73D57082D
:10023800DF005608DE005508DD005408DC000130F8
:100248002100BB070030BC3D3C08803A2000D400A8
:1002580080305402031D3329203021003B02031C47
:10026800F92805302000DF36DE0CDD0CDC0C890BAC
:1002780036290030F9000030F8000330F700E83084
:10028800F6005F08F5005E08F4005D08F3005C08FE
:10029800F20085318E25803172082000D400730861
:1002A800D5007408D6007508D7000A30D736D60CA2
:1002B800D50CD40C890B5A2957082100BA00200004
:1002C80056082100B900200055082100B800200078
:1002D80054082100B7003A08F5003908F400380836
:1002E800F3003708F2000030F9000030F80013304E
:1002F800F7002430F60085318E25803175082100FD
:10030800A7007408A6007308A5007208A4002708AF
:100318002000A300210026082000A20021002508B3
:100328002000A100210024082000A00086311C26FE
:10033800803120002008A9002108AA002208AB006B
:100348004030A6001C30A7004630A80082319F220A
:10035800803120002608B9002708BA002808BB0009
:100368000030B6000030B7004030B8008131EB21D2
:10037800803120003608C6003708C7003808C80092
:100388008331D123803120004908E3004808E20086
:100398004708E1004608E0006308B6006208B500B7
:1003A8006108B4006008B3000A30B7000030B80034
:1003B800B2308531C0258031B2302000A000003035
:1003C800A10085314E2580312000EA01DC2820007B
:1003D8003608BC003708BD003808BE0003103D0DC4
:1003E8003E0DBF003F08C000C008031D022A0030B0
:1003F800B6000030B7000030B80008003908BC006B
:100408003A08BD003B08BE0003103D0D3E0DBF007D
:100418003F08C500C508031D182A0030B600003083
:10042800B7000030B800080045087B3EBC003C0817
:10043800C0073608BC003708BD003808BE001030B9
:10044800BE36BD0CBC0C890B242A3C08BF003F08F3
:10045800C5003908BC003A08BD003B08BE00103092
:10046800BE36BD0CBC0C890B342A3C08BF003F08C3
:10047800C5068030BC003C08C505B717BA17FF3061
:10048800B905FF30BA050030BB050030C1000030A7
:10049800C2000030C3000730BC003C08C400361C52
:1004A8005B2A3908C1073A08C23D3B08C33D013001
:1004B800B836B70CB60C890B5C2A0130B935BA0DC1
:1004C800BB0D890B622A0130C402031D532A09306F
:1004D800BC003C08C400361C772A3908C1073A0812
:1004E800C23D3B08C33D0130B836B70CB60C890B8A
:1004F800782A0130C336C20CC10C890B7E2A013020
:10050800C402031D6F2A4108F2004208F3004308A1
:10051800F4004008BC003C08F5004508BD003D0853
:10052800F6008431582472082000B6007308B7001A
:100538007408B800080020002908AC002A08AD009B
:100548002B08AE0003102D0D2E0DAF002F08B400A0
:10055800B408031DB62A0030A6000030A7000030FA
:10056800A80008002608AC002708AD002808AE003F
:1005780003102D0D2E0DAF002F08B500B508031D73
:10058800CC2A0030A6000030A7000030A8000800E0
:100598000030B1000030B2000030B30089303507B8
:1005A800AC002C08B4022908AC002A08AD002B08BE
:1005B800AE001030AE36AD0CAC0C890BDE2A2C0820
:1005C800AF002F08B5002608AC002708AD002808A2
:1005D800AE001030AE36AD0CAC0C890BEE2A2C08F0
:1005E800AF002F08B5068030AC002C08B505AA1757
:1005F800FF30A905FF30AA050030AB05A717FF306B
:10060800A605FF30A7050030A8051830AC002C0857
:10061800B0000130B135B20DB30D890B0E2B28088F
:100628002B02031D1D2B27082A02031D1D2B26083C
:100638002902031C262B2608A9022708AA3B2808FA
:10064800AB3B31140130A935AA0DAB0D890B272B13
:100658000130B002031D0D2B3108F2003208F300FF
:100668003308F4003408AC002C08F5003508AD0058
:100678002D08F6008431582472082000A60073085B
:10068800A7007408A80008002000B2002908B000DC
:100698002808AF002708AE002608AD002A08F20097
:1006A8002B08F300890D893B8909F400F50030080F
:1006B800F9002F08F8002E08F7002D08F6008431FD
:1006C800B824833175082000B0007408AF0073089F
:1006D800AE007208AD000130AC002C08B20730083B
:1006E8002F042E042D04031D522B32088600870187
:1006F80081010130B2022A08F2002B08F300890DAB
:10070800893B8909F400F5002908F9002808F80050
:100718002708F7002608F60085310B258331720873
:100728002000AC002C08B1002A08F2002B08F300C6
:10073800890D893B8909F400F5002908F900280882
:10074800F8002708F7002608F6008431B82483311A
:1007580075082000A9007408A8007308A70072088B
:10076800A6000A303102031CBD2B0730AC002C0850
:10077800B1073030AC002C08B1073108AC003208A2
:10078800860087012C0881000130B202290828045C
:1007980027042604031908007F2B20004608CA00F6
:1007A8004708CB004808CC0003104B0D4C0DCD007A
:1007B8004D08D300D308031DEA2B0030C9000030D0
:1007C800C8000030C7000030C60008004608CA004C
:1007D8004708CB004808CC001730CC36CB0CCA0CE5
:1007E800890BF12B4A08CD004D08CE00C717FF3002
:1007F800C605FF30C7050030C8054608CF004708C2
:10080800D0004808D100D2018E30D302D31F282C43
:100818005308803A8F3E03181A2C0030C900003064
:10082800C8000030C7000030C60008000130D236CA
:10083800D10CD00CCF0C890B1B2C0130CA004A08F4
:10084800D3070319412C1A2C18305302031C3E2CD1
:100858000030C9000030C8000030C7000030C600B2
:1008680008000130CF35D00DD10DD20D890B362CB3
:100878000130D302D308031D352C4E0803194F2C21
:10088800CF09D009D109D209CF0A0319D00A03190F
:10089800D10A0319D20A5208C9005108C8005008E1
:1008A800C7004F08C600080075080319602C7408B3
:1008B80073047204031D712C0030F2000030F30041
:1008C8000030F40008000130F7007708F507013020
:1008D800F436F30CF20C890B6C2CFE3074050319FA
:1008E8008A2C672C0130F7007708F5070130F207EA
:1008F800003003180130F307003003180130F40703
:100908000130F436F30CF20C890B852CFF3074059A
:100918000319972C762C0130F5020130F235F30DCE
:10092800F40D890B922CF31F8F2C7518A12CFF3016
:10093800F2057F30F305FF30F4050310F50C750858
:10094800F700F801F9011030F735F80DF90D890BAA
:10095800A82C7708F2047808F3047908F4047608D8
:1009680003190800F417080000302000A400003024
:10097800A3000030A2000030A100750874047304BD
:1009880072040319022DA501A50AF51BD72C013005
:10099800F235F30DF40DF50D890BCC2C0130A000C8
:1009A8002008A507C92C0130A135A20DA30DA40D5F
:1009B800890BD82C75087902031DEC2C7408780271
:1009C800031DEC2C73087702031DEC2C72087602C9
:1009D800031CF72C7208F6027308F73B7408F83BFF
:1009E8007508F93B21140130F536F40CF30CF20CC0
:1009F800890BF82C0130A502031DD72C2408F5001B
:100A08002308F4002208F3002108F2000800750802
:100A18007404730472040319452D2000A101A10A6E
:100A2800F51B222D0130F235F30DF40DF50D890B70
:100A3800172D0130A0002008A107142D7508790290
:100A4800031D302D74087802031D302D73087702BA
:100A5800031D302D72087602031C3A2D7208F60227
:100A68007308F73B7408F83B7508F93B0130F53615
:100A7800F40CF30CF20C890B3B2D0130A102031D81
:100A8800222D7908F5007808F4007708F300760835
:100A9800F20008002000A301A40120088400210816
:100AA80085000008003803196B2D200884002108F0
:100AB8008500000886314626853101302000A007D0
:100AC8000030A13D0130A3070030A43D512D24087A
:100AD800803AA20080302202031D742D04302302C4
:100AE800031808000330200023062404031D802D6A
:100AF8004C308631462685310230200023062404F6
:100B0800031D080020308631462685314C30863159
:100B18004626080000302000A3000030A200003064
:100B2800A1000030A000721CA22D76082000A007AA
:100B38007708A13D7808A23D7908A33D0130F63534
:100B4800F70DF80DF90D890BA32D0130F536F40CCE
:100B5800F30CF20C890BAA2D750874047304720443
:100B6800031D972D20002308F5002208F400210812
:100B7800F3002008F20008002000BB003B08B90081
:100B88003908BA00B61FDE2D2D30B9003B088600A3
:100B98008701390881000130B9003908BB07B3095A
:100BA800B409B509B609B30A0319B40A0319B50A91
:100BB8000319B60A3608A9003508A8003408A700A2
:100BC8003308A6003808AB01AB073708AA01AA0703
:100BD8003B088331482308001030F4007408F500FE
:100BE80022008D121030F4007408F500F50803197E
:100BF800132EF31B012E0D12022E0D160130F235A5
:100C0800F30D890B032E8D160530F400F40B0A2E14
:100C180022008D120130F502F508031DFD2D0D137C
:100C28000A30F400F40B162E000022000D170800FD
:100C38008E302000A4002408A500FF3023050319E6
:100C4800312E0130A336A20CA10CA00C890B262E44
:100C58000130A4002408A507212E2008F20021084D
:100C6800F3002208F4002508A4002408F500F60182
:100C78008431582472082000A0007308A100740869
:100C8800A2000800F7007708F6007608F8007A084E
:100C9800F6007608F9007908F301F3077808F201FD
:100CA800F2078531F0258631FF30FA07FF30FB3D2A
:100CB8007B08803AF60080307602031D652E0430EA
:100CC8007A02031808000730FA000030FB00080019
:100CD800F70021000D138D120D127708F600760823
:100CE800F800F9017908F301F3077808F201F2072F
:100CF8008531F0250800640080010131890B802EC0
:020D08000034B5
:0E0E00004C34553458344D340034073400342B
:020000040001F9
:04000E00E4F9FFDF33
:00000001FF
